:020000040800F2
:1000000008050020450100089B190008851200081A
:10001000991900083B040008993E00080000000000
:100020000000000000000000000000009F19000810
:100030003D040008000000009D190008A1190008F7
:100040005F0100085F0100085F0100085F01000810
:100050005F0100085F0100085F0100085F01000800
:100060005F0100085F0100085F0100085F010008F0
:100070005F0100085F0100085F0100085F010008E0
:100080005F0100085F0100085F0100085F010008D0
:100090005F0100085F0100085F0100085F010008C0
:1000A0005F0100085F0100085F0100085F010008B0
:1000B0005F0100085F010008113D00085F010008B2
:1000C0005F0100085F0100085F0100085F01000890
:1000D0005F0100085F0100085F0100085F01000880
:1000E0005F0100085F0100085F0100085F01000870
:1000F0005F0100085F0100085F0100085F01000860
:100100005F0100085F0100085F0100085F0100084F
:100110005F0100085F0100085F0100085F0100083F
:100120005F0100085F0100085F0100085F0100082F
:10013000DFF80CD000F060F900480047F5410008F6
:10014000080500200648804706480047FEE7FEE70E
:10015000FEE7FEE7FEE7FEE7FEE7FEE7FEE7FEE777
:10016000011A000831010008202A04DB203A21FA94
:1001700002F00021704721FA02F3D040C2F12002C0
:100180009140084319467047D2B201E000F8012BB4
:10019000491EFBD270470022F6E710B513460A4607
:1001A00004461946FFF7F0FF204610BD2DE9FE4F2B
:1001B00081EA030404F0004421F0004100944FF070
:1001C000000B23F0004350EA01045ED052EA03041E
:1001D0005BD0C3F30A54C1F30A552C44A4F2F334A0
:1001E0000194A0FB0254C1F3130141F48011C3F345
:1001F000130343F4801301FB024400FB034E840A03
:10020000970A44EA815447EA8357A4FB076802959A
:100210008D0A05FB07854FEA932C04FB0C54270538
:10022000029D4FEA065847EA1637B5EB08056EEB14
:10023000070C870E920E47EA811742EA8312A7FB4A
:100240000201B6EB0B0164EB00042B0D43EA0C3307
:100250005E1844EB1C50DA465146E7FB0201C5F339
:1002600013044FEA0B3343EA14534FEA0432019C60
:1002700043EA0603A4F10C040294009CCDE900B407
:1002800000F06CF803B0BDE8F08F00200146F9E7FC
:100290000EB540F2334102910021CDE900110A462A
:1002A0000B4600F05BF803B000BDC1F30A5210B575
:1002B000C1F3130140F2FF3341F480119A4201DA95
:1002C000002010BD40F233439A42A2F2334203DCD5
:1002D0005242FFF749FF10BD904010BD2DE9F05F7D
:1002E0000546002092469B468846064681464024A5
:1002F0001BE02846414647462246FFF735FF534656
:100300005A46C01A914110D311461846224600F0B1
:1003100085F82D1A67EB01084F462246012000217F
:1003200000F07CF817EB00094E41201EA4F10104F7
:10033000DFDC484631462A464346BDE8F09F10B50B
:10034000141E73F1000408DA401C41F100019218F8
:100350005B411A4301D120F0010010BD2DE9F04DA1
:1003600092469B4611B1B1FA81F202E0B0FA80F2F6
:100370002032904600F052F804460F4640EA0A0048
:1003800041EA0B0153465A46084313D0114653EA3B
:10039000010019D0C8F140025046FFF7E5FE0546BE
:1003A0000E4650465946424600F038F8084305D0FC
:1003B000012004E020463946BDE8F08D00200543C9
:1003C00046EAE0762C4337430A986305E40AA0EB3B
:1003D00008000022FD0A44EA47540A3002D50020F2
:1003E0000146E9E7010510196941DDE908450019F1
:1003F0006941BDE8F04DA2E7064C074D06E0E06814
:1004000040F0010394E8070098471034AC42F6D35B
:10041000FFF792FE848A0008A48A0008202A04DBE1
:10042000203A00FA02F1002070479140C2F1200307
:1004300020FA03F3194390407047FEE7704772B605
:10044000FEE7000000B58FB01C2107A8FFF7A3FE50
:100450001C216846FFF79FFE1A484FF020410622F4
:1004600001601949C0E9011200211023C160C0E9EF
:1004700004138161C1611B020162C0E909139B0081
:10048000C0E90B13416381631A20CDE908100D9177
:100490000792032003918DE8070006916A4607A999
:1004A000084800F02BFD6A4607A9064800F026FD23
:1004B00008B1FFF7C4FF0548C16941F48061C1611B
:1004C0000FB000BDAC000020040100A000000140FE
:1004D00030B5B3F5804F05D06FF0704140F8221071
:1004E000002030BD8C690B688D6823434C68898976
:1004F000240144EA0524234343EA014150F8223011
:10050000014C23401943E9E70000F0CF10B50A6819
:1005100050F8223023F0010340F822308C68082C78
:1005200023D000234A682243CC681C430B69224332
:100530001A434B690E4C1A43CB691A430B6A1A4390
:100540004B6A1A438B6A1A43CB6A1A430B6B1A43E2
:100550008B6913434A6B09681A4350F82130A3434F
:10056000134340F82130002010BD4023DAE700009B
:100570007FFF0F0030B5D1E9003443EA04138C68E3
:100580008D89240244EA054423430C8A094D00EB7B
:10059000820005EB045423430C7D6D0105EB0464DC
:1005A000896923430B43416801F040410B43436099
:1005B000002030BD0000F0FF70B5044600F04AF99D
:1005C0000546601C02D004480078044400F042F95B
:1005D000401BA042FAD370BD0000002030B585B0AA
:1005E00000200090019002900390174801680029B4
:1005F00027D1012101601548416941F480714161B1
:100600004069022400F48070049041F20100CDE9B9
:1006100000040325694603950D4800F01FF84FF6C6
:100620008070CDE90004694603950A4800F016F889
:100630004CF23370CDE9000469460395064800F09A
:100640000DF805B030BD000014000020001002407D
:100650000020014000180140001401402DE9F84F2E
:10066000DFF8C891002409F1040A0AF1040B2346BB
:100670000F270BF1040ED1E00125A54006EA050283
:10068000AA4276D1DFF8A8C14E68A6EB0C086645F1
:100690002BD00DDC032E34D005DC36B3012E19D05F
:1006A000022E2FD11BE0112E16D0122E2AD119E0C6
:1006B000B8F5881F19D006DCB8F5803F15D0B8F51D
:1006C000801F1FD111E0B8F5001F0ED0B8F5041F30
:1006D00018D10AE0CB6815E0CB681B1D12E0CB688F
:1006E00008330FE0CB680C330CE08B682BB1012B87
:1006F0004FF0080303D0456104E0042302E00561E4
:1007000000E00023FF2A01D8064601E000F10406BC
:100710004FEA840501D9A5F12005D6F8008007FA33
:1007200005FC28EA0C0803FA05F548EA0508C6F8AE
:1007300000804D68ED0070D53E4DAE6946F0010673
:10074000AE61AD6924F0030605F0010500953A4D50
:1007500006EB050CDCF80850A607360F07FA06F87A
:1007600025EA0805DFF8D480404503D14FF00008A2
:1007700025E052E0DFF8C880404502D14FF0010883
:100780001DE0DFF8C080404502D14FF0020816E0BE
:10079000DFF8B480404502D14FF003080FE0DFF8E6
:1007A000AC80404502D14FF0040808E0DFF8A0809B
:1007B000404502D14FF0050801E04FF0060808FA65
:1007C00006F848EA0508CCF808804D68D9F80060BA
:1007D000ED034D4601D5164300E096432E604D686B
:1007E000DAF80060AD03554601D5164300E09643A4
:1007F0002E604D68DBF80060ED025D4601D51643C2
:1008000000E096432E604D68DEF80060AD0275464C
:1008100001D5164300E096432E60641C0A68164614
:10082000E2407FF429AFBDE8F88F000000040140EA
:1008300000001110001002400000014000080140BB
:10084000000C01400010014000140140001801405C
:10085000001C014001488068704700000000002033
:1008600002488168027811448160704700000020CE
:10087000074810B5016841F010010160032000F045
:100880008FF8002000F006F800F03EF8002010BDC0
:100890000020024000B5014687B000221E2000F073
:1008A0005FF81E2000F04EF81348C16941F00401C2
:1008B000C161C06905A900F004000690684600F017
:1008C00017F900F035F90D494000B0FBF1F10D4882
:1008D0000B4A491E0260416040F2E7320021C0E944
:1008E0000321816000F040FB10B1012007B000BD82
:1008F000044800F067FBF9E70010024040420F0097
:1009000000080040240000200C4808B5816941F02F
:1009100001018161816901F001010091C16941F02A
:100920008051C161C06900F0805000900448416866
:1009300021F0E06141F00071416008BD001002400B
:1009400000000140002809DB00F01F020121914056
:100950004009800000F1E020C0F80011704700005D
:10096000F0B40E4B1B680C46C3F30223C3F107051A
:10097000042D00D90425191D072901D2002300E008
:10098000DB1E012606FA05F1491E214099409E40D2
:10099000761E16403143F0BC03F090BA0CED00E037
:1009A000064900F0070208684FF6FF03184040EAC6
:1009B0000220034A10430860704700000CED00E07D
:1009C0000000FA052DE9F0470F46050061D0434EBF
:1009D000306800F00700B84209D2306820F0070004
:1009E00038433060306800F00700B84251D12868C1
:1009F0003B4C810712D5400703D5606840F4E060A6
:100A000060602878000703D5606840F4605060603B
:100A10006068A96820F0F000084360602878C0078B
:100A200028D06868012810D02168022810D08907D2
:100A300000292EDA616821F0030101436160FFF7AC
:100A400009FF804641F288390DE021688903EFE70C
:100A50008901EDE7FFF7FEFEA0EB0801494502D949
:100A60000320BDE8F0876068696800F00C00B0EB17
:100A7000810FEFD1306800F00700B8420BD9306821
:100A800020F0070038433060306800F00700B842BB
:100A900001D00120E5E72878400705D56068E968BE
:100AA00020F4E060084360602878000706D560689D
:100AB000296920F4605040EAC100606000F058F8F5
:100AC0006168084AC1F30311515CC84006490860D7
:100AD00006480068FFF7DEFE0020C2E70020024063
:100AE00000100240294300080C00002004000020F0
:100AF0000F2202600C4A536803F0030343605368FB
:100B000003F0F0038360536803F4E063C36052684A
:100B10004FF4E06303EAD20202610448006800F087
:100B200007000860704700000010024000200240EB
:100B30000448054900684968044AC1F30221515C30
:100B4000C84070470C0000200010024039430008E4
:100B50000448054900684968044AC1F3C221515C50
:100B6000C84070470C0000200010024039430008C4
:100B700012A185B00FC98DE80F0014A0144A0068B7
:100B800004905168134801F00C03042B10D0082B7B
:100B90000ED1C1F38343C9031DF803000AD5516880
:100BA00004AAC1F34041515C0A4A5043B0FBF1F042
:100BB00005B0704708494843FAE7000002030405FE
:100BC000060708090A0B0C0D0E0F10100102000099
:100BD0000010024000127A0000093D002DE9F84F94
:100BE000040070D02078C04DC00749D06868C0F3B9
:100BF0008100012807D06868C0F38100022809D16C
:100C00006868C00306D52868800339D56068002865
:100C1000E7D035E06068B0F5803F0BD010B1B0F59B
:100C2000A02F11D0286820F480302860286820F494
:100C3000802002E0286840F480302860606890B12D
:100C4000FFF708FE06460AE0286840F48020286086
:100C5000F0E700BFFFF7FEFD801B642873D828680B
:100C60008003F7D50CE0FFF7F5FD064605E000BF71
:100C7000FFF7F0FD801B6428F0D828688003F7D4C4
:100C800020789A4E80074FF001094FF0000839D5BF
:100C9000686810F00C0F07D06868C0F38100022864
:100CA00009D16868C00306D42868800714D5206974
:100CB000012808D110E02069B0B1C6F80090FFF714
:100CC000C9FD074605E00AE1FFF7C4FDC01B022885
:100CD000C4D828688007F7D52868616920F0F80033
:100CE00040EAC10028600DE0C6F80080FFF7B2FDC1
:100CF000074604E0FFF7AEFDC01B022823D8286892
:100D00008007F7D4207800072CD57948A169D9B19C
:100D1000C0F80090FFF79EFD074604E0FFF79AFD3C
:100D2000C01B02280FD8686A8007F7D571484FF4B6
:100D3000FA510068B0FBF1F0009000BF0098411E2E
:100D40000091FAD20EE080E0C0F80080FFF782FD4B
:100D5000074604E0FFF77EFDC01B022875D8686ACD
:100D60008007F7D42078400760D5E8690027C000E5
:100D700008D4E86940F08050E861E869012700F094
:100D8000805000905C480168C90513D4016883460F
:100D900041F480710160FFF75DFD824606E000BF0F
:100DA000FFF758FDA0EB0A0064284ED8DBF80000DE
:100DB000C005F5D5E06801280AD008B1052813D090
:100DC000286A20F001002862286A20F0040002E06E
:100DD000286A40F001002862E06841F2883B98B13F
:100DE000FFF738FD82460BE0286A40F004002862D5
:100DF000EEE700BFFFF72EFDA0EB0A0159455AD8D8
:100E0000286A8007F6D50CE0FFF724FD824605E04E
:100E1000FFF720FDA0EB0A0159454CD8286A80074E
:100E2000F6D41FB1E86920F08050E861E06988B32A
:100E30006968C1F38101022944D00228C6F86080A4
:100E400004D0FFF707FD044638E034E0FFF702FD69
:100E5000074604E0FFF7FEFCC01B02282BD82868D9
:100E60008001F7D4206AB0F5803F05D16868A16899
:100E700020F4003008436860D4E908010843696839
:100E800021F4741108436860C6F86090FFF7E2FC33
:100E9000044606E025E000BFFFF7DCFC001B02284B
:100EA00009D828688001F7D51BE000BFFFF7D2FC06
:100EB000001B022802D90320BDE8F88F28688001B2
:100EC000F4D40EE00128F7D06868226A00F480317B
:100ED000914204D1616A00F47010884201D001206F
:100EE000EAE70020E8E7000000100240000042426C
:100EF000800442420C0000200070004070B515468E
:100F00000E46040007D0A069B0F5807F03D094F8A6
:100F1000410010B107E0012070BD002084F84000BE
:100F2000204600F01DF804F108012068FFF7EEFAF2
:100F30003146A2682068FFF71DFBD4E9010229466B
:100F4000236BFFF7C5FAA168206850F8212042F012
:100F5000010240F82120012084F84100002070BDEA
:100F6000FFF73CBB7047704710B5040003D094F8FE
:100F70003D0010B107E0012010BD002084F83C00C6
:100F8000204600F01EF8022084F83D00211D206854
:100F900002F0C4FE012084F8460084F83E0084F884
:100FA0003F0084F8400084F8410084F8420084F84F
:100FB000430084F8440084F8450084F83D00002094
:100FC00010BD704790F83D10012901D001207047F5
:100FD000022180F83D100168CA6842F00102CA602F
:100FE00000680E4988420ED00D4988420BD0B0F1FE
:100FF000804F08D00B49884205D00B49884202D067
:101000000A49884204D1816801F00701062903D00A
:10101000016841F00101016000207047002C01408F
:10102000003401400004004000080040000C004073
:10103000704770B50446006801694FF00005C94368
:10104000890715D4C168C943890711D4E91E016114
:1010500001202077206880698007204602D0FFF7B2
:10106000E7FF04E000F098F8204600F096F82577B6
:1010700020680169C943490717D4C168C9434907B2
:1010800013D46FF004010161022020772068806989
:1010900010F4407F204602D0FFF7CAFF04E000F0C2
:1010A0007BF8204600F079F8257720680169C9436C
:1010B000090716D4C168C943090712D46FF00801A3
:1010C0000161042020772068C0698007204602D093
:1010D000FFF7AEFF04E000F05FF8204600F05DF897
:1010E000257720680169C943C90617D4C168C94377
:1010F000C90613D46FF01001016108202077206821
:10110000C06910F4407F204602D0FFF791FF04E051
:1011100000F042F8204600F040F825772068016989
:10112000C943C90708D1C168C943C90704D1891E89
:101130000161204600F032F820680169C9430906C0
:1011400009D4C168C943090605D46FF08001016163
:101150002046FFF707FF20680169C943490609D403
:10116000C168C943490605D46FF0400101612046BA
:1011700000F01EF820680169C94389060BD4C168D4
:10118000C943890607D46FF0200101612046BDE8FC
:101190007040FFF7E8BE70BD7047704700680349B4
:1011A000884201D1FFF75CBB704700000008004097
:1011B000704770B5040004D094F83900002510B1D0
:1011C00006E0012070BD84F83850204600F022F877
:1011D000242084F839002068C16821F40051C160DE
:1011E000204602F0E1FD2068016921F4904101618F
:1011F0002068416921F02A0141612068C16841F4F9
:101200000051C160E563202084F8390084F83A0079
:10121000002070BD30B585B0002400940194029484
:10122000039400681449884224D11448816941F428
:1012300080418161816901F480410491816941F0BB
:101240000401816180690E4D00F0040004904FF4A8
:101250000070009002200190032003906946284608
:10126000FFF7FCF92815CDE90004694628460294E9
:10127000FFF7F4F905B030BD00380140001002401E
:1012800000080140FEE7000070B50A490646002448
:1012900008884D8821464543204600F0F9F900F0C2
:1012A0002DFBB0B2044901E00880641CAC42FBD3C2
:1012B00070BD0000F40000200008006C2DE9F04F24
:1012C00033492C240A4688712A2592882B2645F218
:1012D000105B4FF4305E4FF448774FF0F00949F25D
:1012E000413A4FF4A07845F2103C4FF4F07358B1F6
:1012F000A1F80080A1F80290524501D0624529D1A1
:101300000C814D818E8139E0A1F80090A1F8028016
:10131000524501D0624508D10C814D818E816245D4
:1013200031D1A1F800804B802DE05A4508D1A1F8B9
:1013300008E04FF4285048814FF42C50888106E093
:10134000A2F5C85063381ED10C814E818D810B806F
:101350004F8018E05A4508D1A1F808E04FF4285012
:1013600048814FF42C50888106E0A2F5C8506338BC
:1013700004D10C814D818E810F804B80624502D15A
:101380000B80A1F80280BDE8F04F002000F0A4B867
:10139000F40000202DE9F041354C90460D46024600
:1013A000060AA18820462F0A4089A1F51343413B34
:1013B0000CD0A1F5A643103B08D0A1F5AA43103BE1
:1013C00010D0A1F5C853633B25D048E000F08AFA5D
:1013D000304600F07BFAD0B200F078FAA08900F035
:1013E00081FA36E000F07EFA304600F06FFA60894C
:1013F000401C80B200F076FAD0B200F067FAA08903
:1014000000F070FA384600F061FAA089401C80B202
:1014100000F068FA20E0A17919B92188891A491EDB
:101420008AB200F05FFA160A304600F04FFAD0B2E6
:1014300000F04CFA304600F049FAD0B200F046FA1B
:10144000A08900F04FFA384600F040FAE8B200F008
:101450003DFA384600F03AFAE8B200F037FA0549AA
:1014600020890880891CA1F80080BDE8F081000077
:10147000F4000020FE07006C034808B50088ADF8B2
:101480000000BDF8000008BD0008006C10B5024661
:10149000BE2000F027FA052000F018FA1046FEF7EB
:1014A000F7FE4FF066320B4BFEF780FEFEF7FDFEB7
:1014B00080B200F00BFA012000F008FAFF2000F0E3
:1014C00005FA002000F002FABDE81040002000F00C
:1014D000FDB9000066660440F0B56C4C002321465F
:1014E000A279898841F66316012A01D01AB11BE05E
:1014F000B14202D118E0B14216D1082814D2DFE877
:1015000000F00406080A0C0E101206200CE007205A
:101510000AE0042008E0052006E0012004E00020A5
:1015200002E0032000E00220A1F5134745F210324B
:1015300045F21055413F05D0914203D0A94201D058
:10154000B14277D1082812D2DFE800F01104060872
:101550000A0C0E1080230AE0402308E0C02306E0B6
:10156000202304E0602302E0A02300E0E023A9425E
:1015700002D14FF4585000E03620914205D0A942E4
:1015800003D0B14201D043F00803194600F0C0F97E
:10159000A188B1420AD098062088628802D590427C
:1015A00002D303E0904201D9228060806089A94281
:1015B00041D100F097F9002000F088F96089401CC3
:1015C00080B200F08FF9002000F080F96089801C63
:1015D00080B200F087F92088401EC0F30F2000F091
:1015E00075F96089C01C80B200F07CF92078401E3B
:1015F000C0B200F06BF9A08900F074F9002000F08F
:1016000065F9A089401C80B200F06CF9002000F060
:101610005DF9A089801C80B200F064F96088401EEA
:10162000C0F30F2000F052F9A089C01C80B200F076
:1016300059F922E028E000F055F9002000F046F9C1
:10164000002000F043F92088401EC0F30F2000F076
:101650003DF92078401EC0B200F038F9A08900F0B2
:1016600041F9002000F032F9002000F02FF96088E5
:10167000401EC0F30F2000F029F9A078BDE8F0402B
:10168000401EC0B200F022B9F0BD0000F4000020FE
:10169000F0B53F4A0D460446060A918810462F0AC7
:1016A0004089A1F51343413B28D0A1F5A643103B47
:1016B00024D0A1F5C853633B2FD0A1F5AA43103B1A
:1016C00064D100F00FF9304600F000F95089401C59
:1016D00080B200F007F9E0B200F0F8F8908900F06D
:1016E00001F9384600F0F2F89089401C80B200F011
:1016F000F9F8E8B2BDE8F04000F0E8B800F0F2F820
:10170000304600F0E3F8E0B200F0E0F8908900F035
:10171000E9F8384600F0DAF8EBE7917929B300F000
:10172000E1F8304600F0D2F8E0B200F0CFF81088CF
:10173000401EC0F30F2000F0C9F81078401EC0B260
:1017400000F0C4F8908900F0CDF8384600F0BEF8FB
:10175000E8B200F0BBF85088401EC0F30F2000F044
:10176000B5F89078401EC0B2C4E71188091B491E25
:101770008CB200F0B7F8002000F0A8F8002000F0CC
:10178000A5F8200A00F0A2F8E0B2D9E7F0BD000009
:10179000F40000202DE9FF4F1D460C468A465807ED
:1017A00000D0012000EBD50069084843203A00F042
:1017B000FF09D0B20026DFF8A8B002904BE00C2D54
:1017C00011D0102D14D0182D17D0202D45D125491A
:1017D000029801EBC0104FF00008875D380613D562
:1017E0002148026814E00298204900EB400008E01C
:1017F0001F49029801EB0010EDE702981D4900EB2C
:10180000C00001EB8000E6E70D9828B91648426851
:1018100021460098FFF7BEFD7806070E641CBBF852
:101820000200A4B2A04218D9A4EB0A00A84209D130
:1018300000985446401C80B20090BBF800108142D2
:101840000BD906E008F1010000F0FF08B8F1080F1D
:10185000C4D3761CF6B24E45B1D3BDE8FF8F00006D
:10186000F4000020015B00081C0000204143000838
:10187000B5470008A54D00082DE9F84F044600F0D3
:10188000FF0910190D46DDE90AB61FFA80F858194C
:1018900087B24FF0000A12E0444503D305EB0B007A
:1018A0004C4685B2BD420FD25B4629462046CDF854
:1018B00000A0FFF76FFF04EB5B0084B2761C327868
:1018C000A2F120005E28E7D9BDE8F88F01B5BDF888
:1018D0000000ADF80000BDF800000149088008BD17
:1018E0000008006C01B5BDF80000ADF80000BDF8BF
:1018F00000000149088008BDFE07006C024803494A
:101900000089088070470000F4000020FE07006C8A
:10191000024A1080901C018070470000FE07006C96
:101920001B4800B5816985B041F00801816181697A
:1019300001F008010491816941F48071816181693C
:1019400001F480710491816941F0400181618169F4
:1019500001F040010491816941F0200181618169B8
:1019600001F020010491816941F0040181618069E5
:10197000694600F00400049001200090019002905C
:10198000032003900348FEF769FE05B000BD000088
:1019900000100240000C0140FEE7FEE77047704770
:1019A000704730B58FB028216846FEF7F4FB14214C
:1019B0000AA8FEF7F0FB01210804CDE9001000247D
:1019C000029402250491CDE907504FF4E0100990EC
:1019D0006846FFF703F908B172B6FEE70F20CDE9BC
:1019E0000A054FF48060CDE90C4002210AA80E944C
:1019F000FEF7E8FF002801D072B6FEE70FB030BD59
:101A0000704700002DE9F05F322002F0D7FBD320B1
:101A1000FFF768FFFFF730FDFD4CA080FFF72CFDBE
:101A2000A080FFF729FD4FF6FF7909EA0020A0808A
:101A3000FFF722FDA18849F241380843A08045F212
:101A4000103645F2105541F66317404548D0D42072
:101A5000FFF748FFFFF710FDA080FFF70DFDA08006
:101A6000FFF70AFD09EA00204A46A080FFF704FDBF
:101A7000A1880843A080B04232D04FF45A40FFF70B
:101A800031FFFFF7F9FCA0804FF45B40FFF72AFF1E
:101A9000FFF7F2FC02EA0020A0804FF45C40FFF761
:101AA00021FFFFF7E9FCA1880843A080B0F5004FB3
:101AB0007ED0A84214D0A120FFF714FFFFF7DCFC72
:101AC000A080FFF7D9FC02EA0020A080FFF7D4FC39
:101AD000A1880843A0F5AE41A080613900D1A7805C
:101AE000A188CCA002F0DAF9A08840457ED1CF20B1
:101AF000FFF7F8FE0020FFF7E9FEC120FFF7E6FE42
:101B00003020FFF7E3FEED20FFF7ECFE6420FFF747
:101B1000DDFE0320FFF7DAFE1220FFF7D7FE81205B
:101B2000FFF7D4FEE820FFF7DDFE8520FFF7CEFEAD
:101B30001020FFF7CBFE7A20FFF7C8FECB20FFF77F
:101B4000D1FE3920FFF7C2FE2C20FFF7BFFE002098
:101B5000FFF7BCFE3420FFF7B9FE0220FFF7B6FE08
:101B6000F720FFF7BFFE2020FFF7B0FEEA20FFF7C7
:101B7000B9FE0020FFF7AAFE0020FFF7A7FEC02055
:101B8000FFF7B0FE1B20FFF7A1FEC120FFF7AAFE62
:101B90000120FFF79BFEC520FFF7A4FE3020FFF7D2
:101BA00095FE3020FFF792FEC720FFF79BFE00E076
:101BB000B5E0B720FFF78AFE3620FFF793FE4820F6
:101BC000FFF784FE3A20FFF78DFE5520FFF77EFEDB
:101BD000B120FFF787FE0020FFF778FE1A20FFF7FD
:101BE00075FEB620FFF77EFE0A2000E099E0FFF7C1
:101BF0006DFEA220FFF76AFEF220FFF773FE0020C1
:101C0000FFF764FE2620FFF76DFE0120FFF75EFE62
:101C1000E020FFF767FE0F20FFF758FE2A20FFF7AE
:101C200055FE2820FFF752FE0820FFF74FFE0E203A
:101C3000FFF74CFE0820FFF749FE5420FFF746FE51
:101C4000A920FFF743FE4320FFF740FE0A20FFF7DD
:101C50003DFE0F20FFF73AFE0020FFF737FE002081
:101C6000FFF734FE0020FFF731FE0020FFF72EFEC5
:101C7000E120FFF737FE0020FFF728FE1520FFF7D1
:101C800025FE1720FFF722FE0720FFF71FFE112079
:101C9000FFF71CFE0620FFF719FE2B20FFF716FEAC
:101CA0005620FFF713FE3C20FFF710FE0520FFF73C
:101CB0000DFE1020FFF70AFE0F20FFF707FE3F2062
:101CC000FFF704FE3F20FFF701FE0F20FFF7FEFDA8
:101CD0002B20FFF707FE0020FFF7F8FD0020FFF79D
:101CE000F5FD0120FFF7F2FD3F20FFF7EFFD2A2071
:101CF000FFF7F8FD0020FFF7E9FD0020FFF7E6FD04
:101D00000020FFF7E3FDEF20FFF7E0FD1120FFF7D4
:101D1000E9FD782002F052FA292001F00ABFA580DF
:101D2000DEE6B04273D1ED20FFF7DCFD0120FFF7C6
:101D3000CDFDFE20FFF7CAFDEE20FFF7D3FDDE202C
:101D4000FFF7C4FD2120FFF7C1FDF120FFF7CAFD19
:101D50000120FFF7BBFDDF20FFF7C4FD1020FFF7D8
:101D6000B5FDC420FFF7BEFD8F20FFF7AFFDC620F5
:101D7000FFF7B8FD0020FFF7A9FDE220FFF7A6FD61
:101D8000E220FFF7A3FDE220FFF7A0FDBF20FFF751
:101D9000A9FDAA20FFF79AFDB020FFF7A3FD0D20B3
:101DA000FFF794FD0020FFF791FD0D20FFF78EFD5A
:101DB0000020FFF78BFD1120FFF788FD0020FFF7C3
:101DC00085FD1920FFF782FD0020FFF77FFD212010
:101DD000FFF77CFD0020FFF779FD2D20FFF776FD52
:101DE0000020FFF773FD3D20FFF770FD0020FFF797
:101DF0006DFD5D20FFF76AFD0020FFF767FD5D20A8
:101E0000FFF764FD0020FFF761FDB1200AE0FDE36C
:101E1000F4000020204C43442049443A25780D0A20
:101E200000000000FFF75EFD8020FFF74FFD00205F
:101E3000FFF74CFD8B20FFF749FD0020FFF746FD23
:101E40009620FFF743FD0020FFF740FDB220FFF78B
:101E500049FD0020FFF73AFD0020FFF737FD022083
:101E6000FFF734FD0020FFF731FD0320FFF72EFDC3
:101E70000020FFF72BFDB320FFF734FD0020FFF714
:101E800025FD0020FFF722FD0020FFF71FFD0020A9
:101E9000FFF71CFD0020FFF719FD0020FFF716FDDE
:101EA0000020FFF713FD0020FFF710FD0020FFF7D3
:101EB0000DFD0020FFF70AFD0020FFF707FD0020C1
:101EC000FFF704FD0020FFF701FD0020FFF7FEFCF7
:101ED0000020FFF7FBFC0020FFF7F8FC0020FFF7D5
:101EE000F5FC0020FFF7F2FC0020FFF7EFFC0020DC
:101EF000FFF7ECFC0020FFF7E9FC0020FFF7E6FC11
:101F00000020FFF7E3FC0020FFF7E0FCB420FFF720
:101F1000E9FC8B20FFF7DAFC0020FFF7D7FC9620C6
:101F2000FFF7D4FC0020FFF7D1FCA120FFF7CEFC87
:101F30000020FFF7CBFCB520FFF7D4FC0220FFF711
:101F4000C5FC0020FFF7C2FC0320FFF7BFFC002008
:101F5000FFF7BCFC0420FFF7B9FC0020FFF7B6FC3C
:101F6000B620FFF7BFFC0020FFF7B0FC0020FFF712
:101F7000ADFCB720FFF7B6FC0020FFF7A7FC002060
:101F8000FFF7A4FC3F20FFF7A1FC0020FFF79EFC19
:101F90005E20FFF79BFC0020FFF798FC6420FFF712
:101FA00095FC0020FFF792FC8C20FFF78FFC0020AF
:101FB000FFF78CFCAC20FFF789FC0020FFF786FCC4
:101FC000DC20FFF783FC0020FFF780FC7020FFF788
:101FD0007DFC0020FFF77AFC9020FFF777FC0020C3
:101FE000FFF774FCEB20FFF771FC0020FFF76EFC9D
:101FF000DC20FFF76BFC0020FFF768FCB820FFF740
:1020000071FC0020FFF762FC0020FFF75FFC00205E
:10201000FFF75CFC0020FFF759FC0020FFF756FC9F
:102020000020FFF753FC0020FFF750FC0020FFF7D3
:102030004DFCBA20FFF756FC2420FFF747FC002098
:10204000FFF744FC0020FFF741FC0020FFF73EFCB7
:10205000C120FFF747FC2020FFF738FC0020FFF7E6
:1020600035FC5420FFF732FC0020FFF72FFCFF2047
:10207000FFF72CFC0020FFF729FCC220FFF732FC01
:102080000A20FFF723FC0020FFF720FC0420FFF7C5
:102090001DFC0020FFF71AFCC320FFF723FC3C20A7
:1020A000FFF714FC0020FFF711FC3A20FFF70EFCAD
:1020B0000020FFF70BFC3920FFF708FC0020FFF79A
:1020C00005FC3720FFF702FC0020FFF7FFFB3C2058
:1020D000FFF7FCFB0020FFF7F9FB3620FFF7F6FBCC
:1020E0000020FFF7F3FB3220FFF7F0FB0020FFF7A3
:1020F000EDFB2F20FFF7EAFB0020FFF7E7FB2C208A
:10210000FFF7E4FB0020FFF7E1FB2920FFF7DEFBF0
:102110000020FFF7DBFB2620FFF7D8FB0020FFF7AE
:10212000D5FB2420FFF7D2FB0020FFF7CFFB2420B4
:10213000FFF7CCFB0020FFF7C9FB2320FFF7C6FB0E
:102140000020FFF7C3FB3C20FFF7C0FB0020FFF798
:10215000BDFB3620FFF7BAFB0020FFF7B7FB3220AC
:10216000FFF7B4FB0020FFF7B1FB2F20FFF7AEFB1A
:102170000020FFF7ABFB2C20FFF7A8FB0020FFF7A8
:10218000A5FB2920FFF7A2FB0020FFF79FFB2620DD
:10219000FFF79CFB0020FFF799FB2420FFF796FB3D
:1021A0000020FFF793FB2420FFF790FB0020FFF7B0
:1021B0008DFB2320FFF78AFB0020FFF787FBC4205D
:1021C000FFF790FB6220FFF781FB0020FFF77EFB0B
:1021D0000520FFF77BFB0020FFF778FB8420FFF74B
:1021E00075FB0020FFF772FBF020FFF76FFB00206C
:1021F000FFF76CFB1820FFF769FB0020FFF766FB79
:10220000A420FFF763FB0020FFF760FB1820FFF717
:102210005DFB0020FFF75AFB5020FFF757FB002023
:10222000FFF754FB0C20FFF751FB0020FFF74EFB9C
:102230001720FFF74BFB0020FFF748FB9520FFF727
:1022400045FB0020FFF742FBF320FFF73FFB002098
:10225000FFF73CFBE620FFF739FB0020FFF736FBDA
:10226000C520FFF73FFB3220FFF730FB0020FFF7D0
:102270002DFB4420FFF72AFB0020FFF727FB6520FA
:10228000FFF724FB0020FFF721FB7620FFF71EFB62
:102290000020FFF71BFB8820FFF718FB0020FFF74B
:1022A00015FBC620FFF71EFB2020FFF70FFB0020C9
:1022B000FFF70CFB1720FFF709FB0020FFF706FBD9
:1022C0000120FFF703FB0020FFF700FBC720FFF70B
:1022D00009FB0020FFF7FAFA0020FFF7F7FA0020C9
:1022E000FFF7F4FA0020FFF7F1FAC820FFF7FAFA37
:1022F0000020FFF7EBFA0020FFF7E8FA0020FFF7D5
:10230000E5FA0020FFF7E2FAC920FFF7EBFA002018
:10231000FFF7DCFA0020FFF7D9FA0020FFF7D6FA22
:102320000020FFF7D3FA0020FFF7D0FA0020FFF7D4
:10233000CDFA0020FFF7CAFA0020FFF7C7FA002005
:10234000FFF7C4FA0020FFF7C1FA0020FFF7BEFA3A
:102350000020FFF7BBFA0020FFF7B8FA0020FFF7D4
:10236000B5FA0020FFF7B2FA0020FFF7AFFAE0203D
:10237000FFF7B8FA1620FFF7A9FA0020FFF7A6FA30
:102380001C20FFF7A3FA0020FFF7A0FA2120FFF797
:102390009DFA0020FFF79AFA3620FFF797FA0020FF
:1023A000FFF794FA4620FFF791FA0020FFF78EFA24
:1023B0005220FFF78BFA0020FFF788FA6420FFF71E
:1023C00085FA0020FFF782FA7A20FFF77FFA0020D3
:1023D000FFF77CFA8B20FFF779FA0020FFF776FAF7
:1023E0009920FFF773FA0020FFF770FAA820FFF793
:1023F0006DFA0020FFF76AFAB920FFF767FA0020AC
:10240000FFF764FAC420FFF761FA0020FFF75EFAD5
:10241000CA20FFF75BFA0020FFF758FAD220FFF737
:1024200055FA0020FFF752FAD920FFF74FFA0020A3
:10243000FFF74CFAE020FFF749FA0020FFF746FAD1
:10244000F320FFF743FA0020FFF740FAE120FFF7FF
:1024500049FA1620FFF73AFA0020FFF737FA1C2056
:10246000FFF734FA0020FFF731FA2220FFF72EFAA7
:102470000020FFF72BFA3620FFF728FA0020FFF79D
:1024800025FA4520FFF722FA0020FFF71FFA522015
:10249000FFF71CFA0020FFF719FA6420FFF716FA7D
:1024A0000020FFF713FA7A20FFF710FA0020FFF759
:1024B0000DFA8B20FFF70AFA0020FFF707FA9920A0
:1024C000FFF704FA0020FFF701FAA820FFF7FEF952
:1024D0000020FFF7FBF9B920FFF7F8F90020FFF71C
:1024E000F5F9C420FFF7F2F90020FFF7EFF9CA2051
:1024F000FFF7ECF90020FFF7E9F9D220FFF7E6F942
:102500000020FFF7E3F9D820FFF7E0F90020FFF7FC
:10251000DDF9E020FFF7DAF90020FFF7D7F9F32023
:10252000FFF7D4F90020FFF7D1F9E220FFF7DAF93D
:102530000520FFF7CBF90020FFF7C8F90B20FFF7C4
:10254000C5F90020FFF7C2F91B20FFF7BFF90020F3
:10255000FFF7BCF93420FFF7B9F90020FFF7B6F90F
:102560004420FFF7B3F90020FFF7B0F94F20FFF741
:10257000ADF90020FFF7AAF96120FFF7A7F90020C5
:10258000FFF7A4F97920FFF7A1F90020FFF79EF9E2
:102590008820FFF79BF90020FFF798F99720FFF7B5
:1025A00095F90020FFF792F9A620FFF78FF9002098
:1025B000FFF78CF9B720FFF789F90020FFF786F9BC
:1025C000C220FFF783F90020FFF780F9C720FFF74B
:1025D0007DF90020FFF77AF9D120FFF777F9002085
:1025E000FFF774F9D620FFF771F90020FFF76EF9B5
:1025F000DD20FFF76BF90020FFF768F9F320FFF704
:1026000065F90020FFF762F9E32000E00FE3FFF730
:1026100069F90520FFF75AF90020FFF757F90A205A
:10262000FFF754F90020FFF751F91C20FFF74EF98E
:102630000020FFF74BF93320FFF748F90020FFF7A0
:1026400045F94420FFF742F90020FFF73FF95020F9
:10265000FFF73CF90020FFF739F96220FFF736F960
:102660000020FFF733F97820FFF730F90020FFF75B
:102670002DF98820FFF72AF90020FFF727F9972086
:10268000FFF724F90020FFF721F9A620FFF71EF934
:102690000020FFF71BF9B720FFF718F90020FFF71C
:1026A00015F9C220FFF712F90020FFF70FF9C72034
:1026B000FFF70CF90020FFF709F9D120FFF706F921
:1026C0000020FFF703F9D520FFF700F90020FFF7FE
:1026D000FDF8DD20FFF7FAF80020FFF7F7F8F32008
:1026E000FFF7F4F80020FFF7F1F8E420FFF7FAF81D
:1026F0000120FFF7EBF80020FFF7E8F80120FFF7D3
:10270000E5F80020FFF7E2F80220FFF7DFF80020ED
:10271000FFF7DCF82A20FFF7D9F80020FFF7D6F8FA
:102720003C20FFF7D3F80020FFF7D0F84B20FFF74D
:10273000CDF80020FFF7CAF85D20FFF7C7F80020AA
:10274000FFF7C4F87420FFF7C1F80020FFF7BEF8C8
:102750008420FFF7BBF80020FFF7B8F89320FFF7BD
:10276000B5F80020FFF7B2F8A220FFF7AFF800207D
:10277000FFF7ACF8B320FFF7A9F80020FFF7A6F8A1
:10278000BE20FFF7A3F80020FFF7A0F8C420FFF752
:102790009DF80020FFF79AF8CD20FFF797F800206A
:1027A000FFF794F8D320FFF791F80020FFF78EF899
:1027B000DD20FFF78BF80020FFF788F8F320FFF704
:1027C00085F80020FFF782F8E520FFF78BF800205E
:1027D000FFF77CF80020FFF779F80020FFF776F884
:1027E0000020FFF773F80220FFF770F80020FFF7D2
:1027F0006DF82920FFF76AF80020FFF767F83C2002
:10280000FFF764F80020FFF761F84B20FFF75EF850
:102810000020FFF75BF85D20FFF758F80020FFF776
:1028200055F87420FFF752F80020FFF74FF8842086
:10283000FFF74CF80020FFF749F89320FFF746F820
:102840000020FFF743F8A220FFF740F80020FFF731
:102850003DF8B320FFF73AF80020FFF737F8BE2025
:10286000FFF734F80020FFF731F8C420FFF72EF807
:102870000020FFF72BF8CD20FFF728F80020FFF706
:1028800025F8D320FFF722F80020FFF71FF8DC20FF
:10289000FFF71CF80020FFF719F8F320FFF716F8F0
:1028A0000020FFF713F8E620FFF71CF81120FFF7D0
:1028B0000DF80020FFF70AF83420FFF707F8002092
:1028C000FFF704F85620FFF701F80020FEF7FEFF9F
:1028D0007620FEF7FBFF0020FEF7F8FF7720FEF7DB
:1028E000F5FF0020FEF7F2FF6620FEF7EFFF002065
:1028F000FEF7ECFF8820FEF7E9FF0020FEF7E6FF79
:102900009920FEF7E3FF0020FEF7E0FFBB20FEF773
:10291000DDFF0020FEF7DAFF9920FEF7D7FF002049
:10292000FEF7D4FF6620FEF7D1FF0020FEF7CEFFB2
:102930005520FEF7CBFF0020FEF7C8FF5520FEF71D
:10294000C5FF0020FEF7C2FF4520FEF7BFFF0020B5
:10295000FEF7BCFF4320FEF7B9FF0020FEF7B6FFED
:102960004420FEF7B3FF0020FEF7B0FFE720FEF79C
:10297000B9FF3220FEF7AAFF0020FEF7A7FF55207F
:10298000FEF7A4FF0020FEF7A1FF7620FEF79EFFD2
:102990000020FEF79BFF6620FEF798FF0020FEF761
:1029A00095FF6720FEF792FF0020FEF78FFF67205C
:1029B000FEF78CFF0020FEF789FF8720FEF786FFD9
:1029C0000020FEF783FF9920FEF780FF0020FEF72E
:1029D0007DFFBB20FEF77AFF0020FEF777FF9920EE
:1029E000FEF774FF0020FEF771FF7720FEF76EFF01
:1029F0000020FEF76BFF4420FEF768FF0020FEF783
:102A000065FF5620FEF762FF0020FEF75FFF2320E0
:102A1000FEF75CFF0020FEF759FF3320FEF756FF5C
:102A20000020FEF753FF4520FEF750FF0020FEF781
:102A30004DFFE820FEF756FF0020FEF747FF00207D
:102A4000FEF744FF9920FEF741FF0020FEF73EFF0E
:102A50008720FEF73BFF0020FEF738FF8820FEF7B7
:102A600035FF0020FEF732FF7720FEF72FFF002012
:102A7000FEF72CFF6620FEF729FF0020FEF726FF59
:102A80008820FEF723FF0020FEF720FFAA20FEF794
:102A90001DFF0020FEF71AFFBB20FEF717FF0020E6
:102AA000FEF714FF9920FEF711FF0020FEF70EFF3E
:102AB0006620FEF70BFF0020FEF708FF5520FEF70B
:102AC00005FF0020FEF702FF5520FEF7FFFE002065
:102AD000FEF7FCFE4420FEF7F9FE0020FEF7F6FEAE
:102AE0004420FEF7F3FE0020FEF7F0FE5520FEF72F
:102AF000EDFE0020FEF7EAFEE920FEF7F3FEAA2035
:102B0000FEF7E4FE0020FEF7E1FE0020FEF7DEFE09
:102B10000020FEF7DBFE0020FEF7E4FEAA20FEF711
:102B2000D5FECF20FEF7DEFE0020FEF7CFFE002010
:102B3000FEF7CCFE0020FEF7C9FE0020FEF7C6FE21
:102B40000020FEF7C3FE0020FEF7C0FE0020FEF7C7
:102B5000BDFE0020FEF7BAFE0020FEF7B7FE002003
:102B6000FEF7B4FE0020FEF7B1FE0020FEF7AEFE39
:102B70000020FEF7ABFE0020FEF7A8FE0020FEF7C7
:102B8000A5FE0020FEF7A2FE0020FEF79FFEF0202B
:102B9000FEF7A8FE0020FEF799FE5020FEF796FEF5
:102BA0000020FEF793FE0020FEF790FE0020FEF7C7
:102BB0008DFEF320FEF796FE0020FEF787FEF9203B
:102BC000FEF790FE0620FEF781FE1020FEF77EFE47
:102BD0002920FEF77BFE0020FEF778FE3A20FEF764
:102BE00081FE5520FEF772FE1120FEF77BFE642069
:102BF00001F0E4FA2920FEF775FE3520FEF772FE9B
:102C00000020FEF763FE5120FEF76CFEFF20FEF76A
:102C10005DFE5320FEF766FE2C20FEF757FE552082
:102C2000FEF760FE8220FEF751FE2C20FEE3A84254
:102C30007ED14FF4704355211846FEF769FE4FF2DE
:102C4000010AAA215046FEF763FE4FF2020B522101
:102C50005846FEF75DFE08214FF20300FEF758FECE
:102C600001214FF20400FEF753FE0D214FF43040D6
:102C7000FEF74EFE0D214BF20100FEF749FE0D213D
:102C80004BF20200FEF744FE34214FF43640FEF7CB
:102C90003FFE34214BF20160FEF73AFE34214BF245
:102CA0000260FEF735FE0D214FF43140FEF730FE95
:102CB0000D214BF20110FEF72BFE0D214BF20210FD
:102CC000FEF726FE34214FF43740FEF721FE342173
:102CD0004BF20170FEF71CFE34214BF20270FEF73E
:102CE00017FE00214FF43240FEF712FE00214BF296
:102CF0000120FEF70DFE00214BF20220FEF708FE38
:102D000024214FF43840FEF703FE24214BF6010046
:102D1000FEF7FEFD24214BF60200FEF7F9FD01212E
:102D20004FF43F40FEF7F4FD0F214FF4334000E035
:102D3000FEE3FEF7EDFD0F214BF20130FEF7E8FD5B
:102D40000F214BF20230FEF7E3FD34214FF43940FE
:102D5000FEF7DEFD34214BF60110FEF7D9FD3421DC
:102D60004BF60210FEF7D4FD08214FF43540FEF774
:102D7000CFFD08214BF20150FEF7CAFD08214BF2AE
:102D80000250FEF7C5FD03214FF44240FEF7C0FD9F
:102D900024214FF43A40FEF7BBFD24214BF60120DD
:102DA000FEF7B6FD24214BF60220FEF7B1FD00210F
:102DB0004FF43C40FEF7ACFD78214BF60140FEF7A6
:102DC000A7FD00214BF60240FEF7A2FD00214FF4C3
:102DD0003D40FEF79DFD78214BF60150FEF798FD32
:102DE00000214BF60250FEF793FD00214FF43E40C8
:102DF000FEF78EFD64214BF60160FEF789FD002190
:102E00004FF45140FEF784FD33214DF20110FEF7DF
:102E10007FFD00214DF20210FEF77AFD34214DF2C4
:102E20000310FEF775FD00214DF20410FEF770FD52
:102E30003A214DF20510FEF76BFD00214DF2061010
:102E4000FEF766FD4A214DF20710FEF761FD0021F5
:102E50004DF20810FEF75CFD5C214DF20910FEF703
:102E600057FD00214DF20A10FEF752FD81214DF26F
:102E70000B10FEF74DFD00214DF20C10FEF748FD42
:102E8000A6214DF20D10FEF743FD00214DF20E106C
:102E9000FEF73EFDE5214DF20F10FEF739FD012151
:102EA0004DF21010FEF734FD13214DF21110FEF714
:102EB0002FFD01214DF21210FEF72AFD54214DF293
:102EC0001310FEF725FD01214DF21410FEF720FD31
:102ED00082214DF21510FEF71BFD01214DF2161057
:102EE000FEF716FDCA214DF21710FEF711FD022163
:102EF0004DF21810FEF70CFD00214DF21910FEF7EF
:102F000007FD02214DF21A10FEF702FD01214DF2DC
:102F10001B10FEF7FDFC02214DF21C10FEF7F8FC21
:102F200034214DF21D10FEF7F3FC02214DF21E106C
:102F3000FEF7EEFC67214DF21F10FEF7E9FC0221BF
:102F40004DF22010FEF7E4FC84214DF22110FEF733
:102F5000DFFC02214DF22210FEF7DAFCA4214DF233
:102F60002310FEF7D5FC02214DF22410FEF7D0FC11
:102F7000B7214DF22510FEF7CBFC02214DF22610B1
:102F8000FEF7C6FCCF214DF22710FEF7C1FC02214F
:102F90004DF22810FEF7BCFCDE214DF22910FEF7A1
:102FA000B7FC02214DF22A10FEF7B2FCF2214DF2DD
:102FB0002B10FEF7ADFC02214DF22C10FEF7A8FC01
:102FC000FE214DF22D10FEF7A3FC03214DF22E1031
:102FD000FEF79EFC10214DF22F10FEF799FC032105
:102FE0004DF23010FEF794FC33214DF23110FEF714
:102FF0008FFC03214DF23210FEF78AFC6D214DF259
:103000003310FEF785FC00214FF45240FEF780FCA0
:1030100033214DF20120FEF77BFC00214DF202200E
:10302000FEF776FC34214DF20320FEF771FC0021FF
:103030004DF20420FEF76CFC3A214DF20520FEF71C
:1030400067FC00214DF20620FEF762FC4A214DF29A
:103050000720FEF75DFC00214DF20820FEF758FC2A
:103060005C214DF20920FEF753FC00214DF20A20AD
:10307000FEF74EFC81214DF20B20FEF749FC0021AA
:103080004DF20C20FEF744FCA6214DF20D20FEF778
:103090003FFC00214DF20E20FEF73AFCE5214DF2F7
:1030A0000F20FEF735FC01214DF21020FEF730FC19
:1030B00013214DF21120FEF72BFC01214DF21220BD
:1030C000FEF726FC54214DF21320FEF721FC0121CE
:1030D0004DF21420FEF71CFC82214DF21520FEF764
:1030E00017FC01214DF21620FEF712FCCA214DF209
:1030F0001720FEF70DFC02214DF21820FEF708FC08
:1031000000214DF21920FEF703FC02214DF21A2096
:10311000FEF7FEFB01214DF21B20FEF7F9FB022119
:103120004DF21C20FEF7F4FB34214DF21D20FEF77A
:10313000EFFB02214DF21E20FEF7EAFB67214DF264
:103140001F20FEF7E5FB02214DF22020FEF7E0FBF9
:1031500084214DF22120FEF7DBFB02214DF22220DB
:10316000FEF7D6FBA4214DF22320FEF7D1FB02216E
:103170004DF22420FEF7CCFBB7214DF22520FEF7BF
:10318000C7FB02214DF22620FEF7C2FBCF214DF2F4
:103190002720FEF7BDFB02214DF22820FEF7B8FBE9
:1031A000DE214DF22920FEF7B3FB02214DF22A2049
:1031B000FEF7AEFBF2214DF22B20FEF7A9FB022118
:1031C0004DF22C20FEF7A4FBFE214DF22D20FEF740
:1031D0009FFB03214DF22E20FEF79AFB10214DF2AA
:1031E0002F20FEF795FB03214DF23020FEF790FBD8
:1031F00033214DF23120FEF78BFB03214DF23220BB
:10320000FEF786FB6D214DF23320FEF781FB002196
:103210004FF45340FEF77CFB33214DF20130FEF7B3
:1032200077FB00214DF20230FEF772FB34214DF2A4
:103230000330FEF76DFB00214DF20430FEF768FB12
:103240003A214DF20530FEF763FB00214DF20630C6
:10325000FEF75EFB4A214DF20730FEF759FB0021D5
:103260004DF20830FEF754FB5C214DF20930FEF7B9
:103270004FFB00214DF20A30FEF74AFB81214DF24F
:103280000B30FEF745FB00214DF20C30FEF740FB02
:10329000A6214DF20D30FEF73BFB00214DF20E3022
:1032A000FEF736FBE5214DF20F30FEF731FB012131
:1032B0004DF21030FEF72CFB13214DF21130FEF7CA
:1032C00027FB01214DF21230FEF722FB54214DF273
:1032D0001330FEF71DFB01214DF21430FEF718FBF1
:1032E00082214DF21530FEF713FB01214DF216300D
:1032F000FEF70EFBCA214DF21730FEF709FB022143
:103300004DF21830FEF704FB00214DF21930FEF7A4
:10331000FFFA02214DF21A30FEF7FAFA01214DF2BE
:103320001B30FEF7F5FA02214DF21C30FEF7F0FAE1
:1033300034214DF21D30FEF7EBFA02214DF21E3022
:10334000FEF7E6FA67214DF21F30FEF7E1FA02219F
:103350004DF22030FEF7DCFA84214DF22130FEF7E9
:10336000D7FA02214DF22230FEF7D2FAA4214DF213
:103370002330FEF7CDFA02214DF22430FEF7C8FAD1
:10338000B7214DF22530FEF7C3FA02214DF2263067
:10339000FEF7BEFACF214DF22730FEF7B9FA02212F
:1033A0004DF22830FEF7B4FADE214DF22930FEF757
:1033B000AFFA02214DF22A30FEF7AAFAF2214DF2BD
:1033C0002B30FEF7A5FA02214DF22C30FEF7A0FAC1
:1033D000FE214DF22D30FEF79BFA03214DF22E30E7
:1033E000FEF796FA10214DF22F30FEF791FA0321E5
:1033F0004DF23030FEF78CFA33214DF23130FEF7CA
:1034000087FA03214DF23230FEF782FA6D214DF238
:103410003330FEF77DFA00214FF45440FEF778FA7E
:1034200033214DF20140FEF773FA00E081E3002101
:103430004DF20240FEF76CFA34214DF20340FEF7E4
:1034400067FA00214DF20440FEF762FA3A214DF28C
:103450000540FEF75DFA00214DF20640FEF758FAEE
:103460004A214DF20740FEF753FA00214DF2084081
:10347000FEF74EFA5C214DF20940FEF749FA0021B1
:103480004DF20A40FEF744FA81214DF20B40FEF75F
:103490003FFA00214DF20C40FEF73AFAA6214DF218
:1034A0000D40FEF735FA00214DF20E40FEF730FADE
:1034B000E5214DF20F40FEF72BFA01214DF21040AD
:1034C000FEF726FA13214DF21140FEF721FA0121F1
:1034D0004DF21240FEF71CFA54214DF21340FEF754
:1034E00017FA01214DF21440FEF712FA82214DF233
:1034F0001540FEF70DFA01214DF21640FEF708FACD
:10350000CA214DF21740FEF703FA02214DF218408E
:10351000FEF7FEF900214DF21940FEF7F9F90221FC
:103520004DF21A40FEF7F4F901214DF21B4000E084
:1035300002E3FEF7EDF902214DF21C40FEF7E8F937
:1035400034214DF21D40FEF7E3F902214DF21E40F9
:10355000FEF7DEF967214DF21F40FEF7D9F902218F
:103560004DF22040FEF7D4F984214DF22140FEF7C0
:10357000CFF902214DF22240FEF7CAF9A4214DF203
:103580002340FEF7C5F902214DF22440FEF7C0F9B1
:10359000B7214DF22540FEF7BBF902214DF226403E
:1035A000FEF7B6F9CF214DF22740FEF7B1F902211F
:1035B0004DF22840FEF7ACF9DE214DF22940FEF72E
:1035C000A7F902214DF22A40FEF7A2F9F2214DF2AD
:1035D0002B40FEF79DF902214DF22C40FEF798F9A1
:1035E000FE214DF22D40FEF793F903214DF22E40BE
:1035F000FEF78EF910214DF22F40FEF789F90321D5
:103600004DF23040FEF784F933214DF23140FEF7A0
:103610007FF903214DF23240FEF77AF96D214DF228
:103620003340FEF775F900214FF45540FEF770F96D
:1036300033214DF20150FEF76BF900214DF202509B
:10364000FEF766F934214DF20350FEF761F90021CF
:103650004DF20450FEF75CF93A214DF20550FEF7A9
:1036600057F900214DF20650FEF752F94A214DF26A
:103670000750FEF74DF900214DF20850FEF748F9CA
:103680005C214DF20950FEF743F900214DF20A503A
:10369000FEF73EF981214DF20B50FEF739F900217A
:1036A0004DF20C50FEF734F9A6214DF20D50FEF705
:1036B0002FF900214DF20E50FEF72AF9E5214DF2C7
:1036C0000F50FEF725F901214DF21050FEF720F9B9
:1036D00013214DF21150FEF71BF901214DF212504A
:1036E000FEF716F954214DF21350FEF711F901219E
:1036F0004DF21450FEF70CF982214DF21550FEF7F1
:1037000007F901214DF21650FEF702F9CA214DF2D8
:103710001750FEF7FDF802214DF21850FEF7F8F8A9
:1037200000214DF21950FEF7F3F802214DF21A5024
:10373000FEF7EEF801214DF21B50FEF7E9F80221E9
:103740004DF21C50FEF7E4F834214DF21D50FEF707
:10375000DFF802214DF21E50FEF7DAF867214DF234
:103760001F50FEF7D5F802214DF22050FEF7D0F899
:1037700084214DF22150FEF7CBF802214DF2225068
:10378000FEF7C6F8A4214DF22350FEF7C1F802213E
:103790004DF22450FEF7BCF8B7214DF22550FEF74C
:1037A000B7F802214DF22650FEF7B2F8CF214DF2C4
:1037B0002750FEF7ADF802214DF22850FEF7A8F889
:1037C000DE214DF22950FEF7A3F802214DF22A50D6
:1037D000FEF79EF8F2214DF22B50FEF799F80221E8
:1037E0004DF22C50FEF794F8FE214DF22D50FEF7CD
:1037F0008FF803214DF22E50FEF78AF810214DF27A
:103800002F50FEF785F803214DF23050FEF780F877
:1038100033214DF23150FEF77BF803214DF2325047
:10382000FEF776F86D214DF23350FEF771F8002166
:103830004FF45640FEF76CF833214DF20160FEF76D
:1038400067F800214DF20260FEF762F834214DF274
:103850000360FEF75DF800214DF20460FEF758F8B2
:103860003A214DF20560FEF753F800214DF2066053
:10387000FEF74EF84A214DF20760FEF749F80021A5
:103880004DF20860FEF744F85C214DF20960FEF746
:103890003FF800214DF20A60FEF73AF881214DF21F
:1038A0000B60FEF735F800214DF20C60FEF730F8A2
:1038B000A6214DF20D60FEF72BF800214DF20E60AF
:1038C000FEF726F8E5214DF20F60FEF721F8012101
:1038D0004DF21060FEF71CF813214DF21160FEF757
:1038E00017F801214DF21260FEF712F854214DF243
:1038F0001360FEF70DF801214DF21460FEF708F891
:1039000082214DF21560FEF703F801214DF2166099
:10391000FDF7FEFFCA214DF21760FDF7F9FF022106
:103920004DF21860FDF7F4FF00214DF21960FDF72C
:10393000EFFF02214DF21A60FDF7EAFF01214DF27F
:103940001B60FDF7E5FF02214DF21C60FDF7E0FF73
:1039500034214DF21D60FDF7DBFF02214DF21E60A8
:10396000FDF7D6FF67214DF21F60FDF7D1FF022161
:103970004DF22060FDF7CCFF84214DF22160FDF770
:10398000C7FF02214DF22260FDF7C2FFA4214DF2D4
:103990002360FDF7BDFF02214DF22460FDF7B8FF63
:1039A000B7214DF22560FDF7B3FF02214DF22660ED
:1039B000FDF7AEFFCF214DF22760FDF7A9FF0221F1
:1039C0004DF22860FDF7A4FFDE214DF22960FDF7DE
:1039D0009FFF02214DF22A60FDF79AFFF2214DF27E
:1039E0002B60FDF795FF02214DF22C60FDF790FF53
:1039F000FE214DF22D60FDF78BFF03214DF22E606D
:103A0000FDF786FF10214DF22F60FDF781FF0321A6
:103A10004DF23060FDF77CFF33214DF23160FDF750
:103A200077FF03214DF23260FDF772FF6D214DF2F9
:103A30003360FDF76DFF55211846FDF769FFAA2198
:103A40005046FDF765FF52215846FDF761FF0821FA
:103A50004FF20300FDF75CFF00214FF20400FDF779
:103A600057FFCC214FF43140FDF752FF00214BF2BC
:103A70000110FDF74DFF05214FF43640FDF748FFDB
:103A800070214FF43740FDF743FF70214BF2017076
:103A9000FDF73EFF01214FF43840FDF739FF0321C8
:103AA0004BF60100FDF734FF03214BF60200FDF752
:103AB0002FFF03214BF60300FDF72AFF02214FF4ED
:103AC0003C40FDF725FF00214BF60140FDF720FFAC
:103AD00000214BF60240FDF71BFFD0214FF4494077
:103AE000FDF716FF02214CF60110FDF711FF5021E2
:103AF0004CF60210FDF70CFF50214CF60310FDF7B9
:103B000007FF50214CF60410FDF702FF00214FF48F
:103B10005450FDF7FDFE55214FF46850FDF7F8FEB7
:103B20004FF48850FDF7DEFE0120FCF745FD4FF411
:103B30002450FDF7D7FEB9E0B842FCD1E220FDF7F2
:103B4000D1FE1D20FDF7C2FE0220FDF7BFFE0420BE
:103B5000FDF7BCFE642000F03CFBE020FDF7C2FE58
:103B60000120FDF7B3FE0A2000F028FBE020FDF75E
:103B7000B9FE0320FDF7AAFE0C2000F01FFB012078
:103B8000FDF7B0FE0A2000F019FBE620FDF7AAFEC3
:103B90002F20FDF79BFEFF20FDF798FEFF20FDF78D
:103BA00095FEB020FDF79EFE2020FDF78FFE002041
:103BB000FDF78CFE0320FDF789FE40F21F30FDF774
:103BC00085FE0120FDF782FE40F2DF10FDF77EFE4C
:103BD0000020FDF77BFEB420FDF784FE0420FDF7F6
:103BE00075FE40F21F40FDF771FE0020FDF76EFEEE
:103BF0002E20FDF76BFE0020FDF768FE0020FDF78C
:103C000065FE0020FDF762FE0020FDF75FFEB62096
:103C1000FDF768FE0220FDF759FE4FF40370FDF733
:103C200055FE0020FDF752FE1720FDF74FFE152030
:103C3000FDF74CFE0020FDF749FE0020FDF746FE93
:103C4000F020FDF74FFE0320FDF740FE2920FDF791
:103C500049FED020FDF746FE0020FDF737FEBE20CE
:103C6000FDF740FE0520FDF731FEFE20FDF72EFE9C
:103C70000120FDF72BFE0020FDF728FE0020FDF7B8
:103C800025FE0020FDF722FEB820FDF72BFE0320C5
:103C9000FDF71CFE0120FDF719FEBA20FDF722FEFC
:103CA0000120FDF713FE6420FDF7F0FBA0884045DE
:103CB00005D0B04203D0A84201D0B84219D14FF08C
:103CC0002040D0F81C1121F00F01C0F81C11D0F8D1
:103CD0001C1121F47061C0F81C11D0F81C1141F0C6
:103CE0000101C0F81C11D0F81C1141F48071C0F81A
:103CF0001C110020FDF7E2FA04490120C1F88001FF
:103D00004846BDE8F05FFDF7BFBA000000802142E1
:103D10000148FDF78EB9000024000020F0B50268CC
:103D20001C4B1D4D1D4E1E4F1E4C4FF0804C98429B
:103D300009D0A04207D0604505D0A84203D0B042C8
:103D400001D0B84204D122F0700E4A6842EA0E0255
:103D5000984209D0A04207D0604505D0A84203D0C0
:103D6000B04201D0B84203D122F44075CA682A4358
:103D70004D6922F080022A4302608A68C2620A68A2
:103D80008262984201D0A04201D1096901630121F8
:103D90004161F0BD002C01400004004000080040DB
:103DA000000C00400034014070B504460068016911
:103DB000E26821F44051114301612169A068084380
:103DC000616908432168CA6841F20C639A4302435F
:103DD000CA6020684169A26921F4407111434161C0
:103DE0001E492068884202D1FCF7B2FE01E0FCF7D0
:103DF0009FFE00EBC00101EB0012606864218000AF
:103E0000B2FBF0F3B3FBF1F36FF018067343B2FBB0
:103E1000F0F5B2FBF0F605EB8305322303EB051555
:103E2000B5FBF1F5B6FBF1F605F0F00505EB06156F
:103E3000B2FBF0F6B2FBF0F0B0FBF1F06FF018025D
:103E4000504306EB800003EB0010B0FBF1F021685B
:103E500000F00F002844886070BD00000038014069
:103E60000C4810B50A4901604FF4E131416000216E
:103E700081600C22C160C0E904128161C161FDF75B
:103E800098F9002803D0BDE81040FCF7D8BA10BD5F
:103E9000003801406C000020FEE700000FB4054B25
:103EA00010B503A9044A029800F028F810BC5DF888
:103EB00014FB0000DD410008100000200907090E76
:103EC000002804DB00F1E02080F80014704700F0C7
:103ED0000F0000F1E02080F8141D704702E008C8D0
:103EE000121F08C1002AFAD170477047002001E074
:103EF00001C1121F002AFBD1704700002DE9FF4FBE
:103F00008DB09B460F460446002606E025280BD0C0
:103F10005A460F999047641C761C20780028F5D1EA
:103F200011B03046BDE8F08F0025A846012298491F
:103F300000E0054314F8013F203B02FA03F0084279
:103F4000F7D120782E2817D114F8010F45F0040579
:103F50002A280ED06FF02F022078A0F13001092915
:103F60000AD808EB880102EB410100EB0108641C50
:103F7000F2E757F8048B641C20786C280DD004DC21
:103F80004C2812D06A2811D104E074280DD07A2868
:103F90000CD10AE045F4001507E0617845F480157E
:103FA000814202D1641C05F58015641C2278692ABF
:103FB00045D008DC002AB3D0582A69D0632A10D033
:103FC000642A08D13BE0702A67D0732A13D0752A7F
:103FD0005CD0782A5CD010465A460F999047761CE0
:103FE000D3E017F8040B8DF8000000208DF80100D5
:103FF000E946012003E057F8049B4FF0FF306907C2
:104000004FF0000501D40AE06D1C45450DDA8542EC
:10401000FADB19F805100029F6D106E06D1C85427F
:10402000FCDB19F805100029F8D12E4404E019F83A
:10403000010B5A460F9990476D1EF8D2A5E00A2051
:104040000021CDE90801C5F3025002280DD001CFAF
:10405000C117031E71F100030DDA4FF0000CD0EB15
:104060000C006CEB01012D2308E0FF1D27F0070772
:10407000F7E80201EDE72B0504D52B238DF8283056
:1040800001233BE0EB0739D02023F7E70A2000E0CB
:1040900010200021CDE9080107E01020002145F0A3
:1040A0000405CDE908014FF00808C5F302500228C5
:1040B0000FD001CF00214FF0000A2B071FD5702A27
:1040C0000DD0DDE908C38CF0100C5CEA030C0CD0B9
:1040D00015E0FF1D27F00707F7E80201EBE7402294
:1040E0008DF828204FF0010A0BE050EA010306D0BA
:1040F00030238DF828308DF8292002239A46582A3B
:1041000004D024A20DF120090B9209E026A2F9E7C0
:10411000DDE90823FCF7E2F80B9B9B5C09F8013D05
:1041200050EA0102F4D1ADEB090020300890680795
:1041300001D44FF001080899884502DDA8EB010081
:1041400000E000208046002506E00AA85A46405DAF
:104150000F9990476D1C761C5545F6DB04E0302026
:104160005A460F999047761CB8F10001A8F1010852
:10417000F5DC05E019F8010B5A460F999047761CBB
:104180000899481E08900029F4DC641CC5E600006C
:10419000092801003031323334353637383961621D
:1041A00063646566000000003031323334353637E1
:1041B00038394142434445460000000000B50246FC
:1041C0004FF47A7302E0184600F003F8521EFAD258
:1041D00000BDC00000BF401EFCD2704704490A6801
:1041E0005206FCD5024AC1B2121D11607047000090
:1041F000003801401CB5FCF73BFBFDF7D2FBFFF795
:104200002FFEFDF78DFBFCF71DF9FDF7FBFB1849B1
:104210004FF47840D2220860182016A1CDE90001A1
:10422000034628211E20FDF727FB102014A1CDE90D
:1042300000010346C82246211E20FDF71DFB13A0E6
:10424000FFF72CFE17A0FFF729FE702316A21B49CB
:104250001BA0FFF723FE13A0FFF720FE24A0FFF70B
:104260001DFE10A0FFF71AFE28A0FFF717FEE6E7D5
:104270001C000020434A51205445535400000000C4
:104280005446544C43442054455354001B5B313B2B
:1042900033326D746573745F677265656E0D0A1BEA
:1042A0005B306D000D0A00002E2E2F436F72652FBC
:1042B0005372632F6D61696E2E6300002443000802
:1042C0001B5B313B33316D5B202573205D20202546
:1042D0007320286C696E6520256429202D3E20748A
:1042E0006573745F6572726F0D0A1B5B306D000041
:1042F0001B5B313B33336D746573745F79656C6C34
:104300006F770D0A1B5B306D000000001B5B313BBB
:1043100033346D746573745F626C75650D0A1B5B75
:10432000306D00006D61696E00000000000000004B
:10433000000102030406070809000000000102034F
:104340000400000000000000000000000000000069
:10435000003F40000000000000000030004000303E
:10436000004000000009000BC03D000BC03D0009EB
:104370000018C024407FE022403180000018002453
:10438000C01B000D803240018003801C4027401C70
:1043900080074000401000600000000000000000A6
:1043A000000000000000001F80204040200000406E
:1043B0002020401F8000000000090006001F80062A
:1043C0000009000000040004003F80040004000015
:1043D0000000100060000000000000000004000465
:1043E0000004000400040000000000004000000081
:1043F0000000000000002001C0060038004000005E
:10440000001F802040204020401F8000000000103E
:10441000403FC000400000000018C021402240245E
:10442000401840000010802040244024401B8000A1
:104430000002000D0011003FC0014000003C80243C
:104440004024402440238000001F80244024403426
:1044500040038000003000200027C038002000000A
:10446000001B802440244024401B8000001C0022AC
:10447000C0224022401F80000000000000084000D1
:1044800000000000000000000004600000000000C8
:1044900000000004000A00110020804040090009CB
:1044A00000090009000900000000004040208011C0
:1044B000000A000400180020002340240018000017
:1044C000001F802040274029401F40000000400777
:1044D000C039000F0001C0004020403FC0244024EC
:1044E000401B8000001F8020402040204030800082
:1044F0000020403FC0204020401F80000020403F5F
:10450000C024402E4030C0000020403FC024402E38
:1045100000300000000F0010802040224033800255
:104520000020403FC0040004003FC0204020402045
:10453000403FC02040204000000060202020203F5D
:10454000C02000200020403FC024400B0030C0208D
:104550004020403FC020400040004000C03FC03CE1
:104560000003C03C003FC0000020403FC00C40237F
:10457000003FC020001F802040204020401F8000BE
:104580000020403FC024402400180000001F80216C
:1045900040214020E01FA0000020403FC0244026D2
:1045A0000019C0004018C02440244022403180003F
:1045B00000300020403FC020403000000020003F7D
:1045C00080004000403F80200020003E0001C007E6
:1045D0000038002000380007C03C0007C038000049
:1045E00000204039C0060039C020400000200038BB
:1045F0004007C0384020000000304021C02640382D
:104600004020C00000000000007FE040204020006B
:1046100000000070000C000380004000000000401B
:104620002040207FE000000000000020004000202B
:10463000000000000000100010001000100010002A
:104640001000000000400000000000000000000218
:10465000800540054003C0004020003FC0044004E6
:104660004003800000000003800440044006400036
:104670000000000380044024403FC00040000003CD
:10468000800540054003400000000004401FC02496
:104690004024402000000002E00550055006500470
:1046A0002020403FC00440040003C000400000043C
:1046B0004027C00040000000000010001004102738
:1046C000E00000000020403FC00140070004C0049B
:1046D00040204020403FC000400040000007C00490
:1046E0000007C0040003C00000044007C0044004E9
:1046F0000003C00040000003800440044003800029
:1047000000041007F0045004400380000000000380
:10471000800440045007F00010044007C002400429
:104720000004000000000006400540054004C000F1
:1047300000000004001F8004400040000004000747
:10474000800040044007C000400400070004C0018E
:104750008006000400060001C0070001C00600003A
:1047600000044006C0010006C00440000004100719
:104770001004E00180060004000000044005C006AB
:1047800040044000000000000004007BE0402000E6
:1047900000000000000000FFF000000000000040EA
:1047A000207BE0040000000000400080004000206A
:1047B0000020004000000000000000000000000099
:1047C00000000000000000000000001FCC000C00F2
:1047D0000000000000000008003000600008003009
:1047E0000060000000022003FC1E20022003FC1ECB
:1047F000200220000000000E1811043FFF10840C5E
:1048000078000000000F0010840F3800C0077818EF
:10481000840078000000780F8410C411240E9800E2
:10482000E400840008080068007000000000000038
:10483000000000000000000000000007E018182041
:104840000440020000000040022004181807E000A5
:1048500000000000000240024001800FF0018002D1
:1048600040024000000080008000800FF8008000BF
:1048700080008000000001000D000E00000000001C
:104880000000000000000000800080008000800028
:1048900080008000800000000C000C000000000080
:1048A0000000000000000000060018006001800603
:1048B0000018002000000007F00808100410040889
:1048C0000807F000000000080408041FFC000400B2
:1048D000040000000000000E0C10141024104411FD
:1048E000840E0C000000000C1810041104110412B6
:1048F000880C700000000000E00320042408241F3E
:10490000FC0024000000001F981084110411041002
:104910008810700000000007F008881104110418C6
:10492000880070000000001C00100010FC13001C28
:10493000001000000000000E381144108410841193
:10494000440E38000000000700088C104410440892
:104950008807F00000000000000000030C030C00BA
:10496000000000000000000000000101060000003F
:104970000000000000000000800140022004100838
:10498000081004000002200220022002200220025F
:10499000200220000000001004080804100220017A
:1049A000400080000000000E001200100C106C107F
:1049B000800F00000003E00C1813E4142417C4084F
:1049C0002807D000000004003C03C41C400740003E
:1049D000E4001C000410041FFC1104110411040E57
:1049E000880070000003E00C18100410041004107C
:1049F000081C10000010041FFC1004100410040810
:104A00000807F0000010041FFC1104110417C41063
:104A1000040818000010041FFC1104110017C01036
:104A2000000800000003E00C181004100410441CDF
:104A3000780040000010041FFC10840080008010EB
:104A4000841FFC10040000100410041FFC1004104C
:104A5000040000000000030001100110011FFE10FF
:104A6000001000000010041FFC11040380146418DF
:104A70001C1004000010041FFC10040004000400BB
:104A800004000C000010041FFC1F0000FC1F001F8E
:104A9000FC1004000010041FFC0C04030000E010D4
:104AA000181FFC100007F008081004100410040878
:104AB0000807F0000010041FFC1084108010801004
:104AC000800F00000007F0081810241024101C08A4
:104AD0000A07F2000010041FFC1104110011C0119C
:104AE000300E0C000400000E1C1104108410841001
:104AF000441C3800001800100010041FFC100410A3
:104B0000001800000010001FF8100400040004103A
:104B1000041FF8100010001E0011E0001C007013AC
:104B2000801C0010001FC0103C00E01F0000E010BF
:104B30003C1FC000001004180C163401C001C01640
:104B400034180C100410001C00130400FC13041C87
:104B500000100000000804101C1064108413041CD2
:104B600004101800000000000000007FFE4002401A
:104B70000240020000000030000C000380006000D2
:104B80001C0003000000004002400240027FFE00C3
:104B90000000000000000000002000400040004035
:104BA00000200000000001000100010001000100E0
:104BB0000100010001000040004000200000000052
:104BC000000000000000000098012401440144019D
:104BD0004400FC000410001FFC00880104010400D4
:104BE00088007000000000007000880104010401CA
:104BF0000400880000000000700088010401041116
:104C0000081FFC0004000000F801440144014401B5
:104C10004400C800000000010401040FFC1104114D
:104C20000411001800000000D60129012901290102
:104C3000C90106000010041FFC00840100010001EE
:104C40000400FC000400000104190419FC00040025
:104C50000400000000000000030001010119011917
:104C6000FE0000000010041FFC0024004001B401FD
:104C70000C010400000000100410041FFC000400DC
:104C80000400000000010401FC0104010001FC011A
:104C900004010000FC010401FC008401000100018A
:104CA0000400FC0004000000F801040104010401F8
:104CB0000400F80000010101FF0085010401040067
:104CC00088007000000000007000880104010401E9
:104CD0000501FF00010104010401FC00840104013D
:104CE0000001800000000000CC0124012401240107
:104CF000240198000000000100010007F8010401F0
:104D00000400000000010001F80004000400040198
:104D10000801FC0004010001800170000C0010017A
:104D2000600180010001F0010C003001C000300181
:104D30000C01F0010000000104018C0074017001FD
:104D40008C01040000010101810171000E001801B5
:104D5000600180010000000184010C013401440164
:104D600084010C0000000000000000000001003E73
:104D7000FC400240020000000000000000FFFF00B5
:104D800000000000000000400240023EFC01000064
:104D90000000000000000060008000800040004033
:104DA00000200020000000000000000000000000C3
:104DB00000000000000000000000000000000000F3
:104DC00000000000000000000000000000000000E3
:104DD00000000000000000000F80380FFE380F8038
:104DE000380000000000000000000000000000008B
:104DF0000000000100000600000C00003800003137
:104E000000000600000C0000380000300000000028
:104E1000000000000061800067F807F980006180F1
:104E20000061800061800061800067F807F9800000
:104E3000618000000000000000000001C0E003E00D
:104E4000F00630080418081FFFFE040E080787F05C
:104E50000381E000000000000001F000060C0004E7
:104E60000408060C7001F9C0000E00003BE000ECE5
:104E700018070808040C180003E00000000001E017
:104E80000007F003F818041C0804170807E1D00312
:104E9000C0E00023B0003C08002008000010000023
:104EA000000000000100003100003200001C000082
:104EB00000000000000000000000000000000000F2
:104EC00000000000000000000000000000000000E2
:104ED00000000000007F0001FFC00780F00C0018F8
:104EE000100004200002000000000000200002105A
:104EF00000040C00180780F001FFC0007F000000D4
:104F000000000000000000000000000000000000A1
:104F1000004200006600006600003C00001800032C
:104F2000FFC0001800003C00006600006600004260
:104F30000000000000080000080000080000080051
:104F400000080001FFC00008000008000008000081
:104F5000080000080000000000000100003100000F
:104F60003200001C000000000000000000000000F3
:104F70000000000000000000000000000008000029
:104F800008000008000008000008000008000008F1
:104F900000000800000800000800000000000000F9
:104FA0000000000000380000380000380000000059
:104FB00000000000000000000000000000000000F1
:104FC0000000000000000600001C000070000180CE
:104FD000000E0000380000C0000700001C00003078
:104FE0000000000000000000007F8001FFE003805F
:104FF00070060018040008040008060018038070FA
:1050000001FFE0007F8000000000000000000001C0
:10501000000801000801000803FFF807FFF800007E
:105020000800000800000800000000000000000068
:1050300001C03802C0580400980401180402180482
:105040000418061C1803F81801E0F800000000001E
:105050000000000001C0E003C0F0040008040808DC
:1050600004080806180803F41801E7F00001E0003E
:105070000000000000000000000300000D0000110F
:105080000000610000810803010807FFF80FFFF826
:105090000001080001080000000000000000E00717
:1050A000FCD00608080610080610080610080618A6
:1050B00038060FF00607C0000000000000000000E6
:1050C000003F8001FFE00384300208180410080448
:1050D0001008041008071810030FF00007C00000A4
:1050E0000000000000000003C000070000060000F0
:1050F0000600F80607F806180006E000070000069C
:10510000000000000000000001E1E003F7F00634B9
:1051100010041808041808040C08040C08061618D3
:1051200003F3F001C1E000000000000000F80003FC
:10513000FC300306380402080402080402080404D0
:10514000100308F001FFC0007F0000000000000015
:1051500000000000000000000000000000703800A7
:1051600070380070380000000000000000000000EF
:10517000000000000000000000000000000000002F
:1051800000301A00301C0000000000000000000089
:1051900000000000000000000000000008000014F3
:1051A0000000220000410000808001004002002039
:1051B00004001008000800000000000000210000AA
:1051C0002100002100002100002100002100002119
:1051D000000021000021000021000000000000006C
:1051E0000000000800080400100200200100400038
:1051F0008080004100002200001400000800000030
:105200000000000003C00004C000040000080038D3
:10521000080F380808380810000C300007E00003B9
:10522000C000000000000000003F8000FFE003809D
:1052300070020F1006708804C088048308047F88F9
:1052400002C09003012000FE40000008000018008A
:1052500001F8003E0801C20007020007E20000FE5C
:1052600000001FC80001F800003800000804000812
:1052700007FFF807FFF804080804080804080804F2
:10528000080806180803F41801E7F00001E0000020
:1052900000000000003F8001FFE003807002001862
:1052A0000400080400080400080400100600200799
:1052B00080C000000004000807FFF807FFF80400A2
:1052C000080400080400080400180200100380709D
:1052D00001FFE0007F8000000004000807FFF807DE
:1052E000FFF8040808040808040808040808043E35
:1052F000080400080600180100600000000400080F
:1053000007FFF807FFF80408080408000408000471
:105310000800043E000600000600000180000000B6
:1053200000000000003F8001FFE0038070060018CD
:105330000400080402080402080203F00783F000D6
:10534000020000020004000807FFF807FFF8040845
:105350000800080000080000080000080004080811
:1053600007FFF807FFF80400080000000000000431
:10537000000804000804000807FFF807FFF804000D
:1053800008040008040008000000000000000000FD
:1053900000000600000700000104000104000104F1
:1053A000000307FFFE07FFFC0400000400000400E8
:1053B0000004000807FFF807FFF8040C08001800B5
:1053C000003E0004C7800503C80600F80400380446
:1053D000001800000804000807FFF807FFF80400A1
:1053E000080000080000080000080000080000088D
:1053F00000001800006000000004000807FFF80724
:10540000800807FC00007FC00003F80007C0007898
:105410000007800807FFF807FFF8040008040008E9
:1054200007FFF807000803C00000E0000038000094
:105430001E000007000001C00400F007FFF8040090
:1054400000000000007F8001FFE00380700600186C
:1054500004000804000806001803003001FFE00003
:105460007F8000000004000807FFF807FFF804042D
:1054700008040400040400040400040400060C00F2
:1054800003F80001F000000000000000007F800130
:10549000FFE00380700600880400880400C806004E
:1054A0003C03003E01FFE6007F840000000400088A
:1054B00007FFF807FFF8040808040800040C0004BC
:1054C0000F00040BC00610F003F03801E0080000E4
:1054D0000800000001E0F803F0300630100418085E
:1054E000041808040C08040C080206180207F00748
:1054F00081E00000000180000600000400000400BC
:105500000004000807FFF807FFF804000804000083
:1055100004000006000001800004000007FFE0070F
:10552000FFF0040018000008000008000008000058
:105530000800000804001007FFE004000004000059
:1055400006000007E00007FE00041FE00001F8006D
:1055500000380001E0043E0007C00006000004001F
:105560000004000007E00007FFC0041FF80007C0A8
:1055700007F80007FF80043FF80007C004F80007A1
:10558000000004000000000004000806001807C026
:105590007805F1C8003E00001F800463E80780F82A
:1055A00006001804000800000004000006000007C0
:1055B000800007E008047C08001FF80007F80018C6
:1055C0000804E008070000060000040000000000D6
:1055D0000100080600380400F80403E8040F08047A
:1055E0007C0805F00807C0080700180400600000E8
:1055F00000000000000000000000000000000000AB
:105600003FFFFE20000220000220000220000220B6
:105610000002000000000000000000080000070079
:105620000000C0000038000006000001C00000308B
:1056300000000E000001000000000000000000203B
:1056400000022000022000022000022000023FFF92
:10565000FE0000000000000000000000000000004C
:1056600000000000000008000010000030000020D2
:1056700000003000001000000800000000000000E2
:105680000000000100000100000100000100000115
:105690000000010000010000010000010000010005
:1056A00000010000010000000000000000002000D8
:1056B00000200000100000100000000000000000AA
:1056C0000000000000000000000000000000F000EA
:1056D00019F8001B180022080026080024080024DE
:1056E00010003FF8001FF80000080000180000003C
:1056F00004000007FFF80FFFF00018180010080062
:105700002008002008003018001FF0000FC0000023
:10571000000000000007C0001FF000183000200843
:10572000002008002008003C08001C100000600059
:1057300000000000000000000007C0001FF000385B
:105740001800200800200800200804101007FFF8A7
:105750000FFFF0000010000000000000000000003B
:1057600007C0001FF000123000221800220800229B
:1057700008003208001E10000E200000000000008B
:1057800000200000200800200801FFF803FFF806B1
:10579000200804200804200807200003000000005F
:1057A0000000000000000E000E6E001FF30031B17B
:1057B0000020B10020B1003191001F13002E1E0007
:1057C000200E00300000000004000807FFF80FFF63
:1057D000F8001008002000002000002008003FF81A
:1057E000001FF8000008000000000000000000009A
:1057F0002008002008002008063FF8063FF80000B7
:105800000800000800000800000000000000000080
:105810000000000000030000030020010020010040
:105820002003063FFE063FFC0000000000000000D1
:105830000000000004000807FFF80FFFF8000188CF
:10584000000300002FC00038F800203800200800B6
:105850000008000000000000000000040008040030
:105860000804000807FFF80FFFF800000800000810
:10587000000008000000000000002008003FF800C1
:105880003FF8001008002000003FF8003FF800102B
:1058900008002000003FF8003FF80000080000006A
:1058A000002008003FF8003FF8001008001000003A
:1058B0002000002008003FF8001FF800000800004A
:1058C000000000000007C0000FF000183000300892
:1058D000002008002008003008001830000FF000F9
:1058E00007C0000000000000002001003FFF003F53
:1058F000FF001011002009002008002008003038A7
:10590000001FF0000FC00000000000000007C000F2
:105910001FF000381800200800200800200900109F
:1059200011001FFF003FFF000001000000002008E1
:10593000002008002008003FF8003FF80008080099
:105940001008002008002000003000003000000097
:1059500000000000000000000C78001E1800330852
:105960000023080021080021880021980030F00061
:10597000386000000000000000200000200000202F
:105980000000FFF003FFF8002008002008002008B6
:1059900000003000000000000000000000200000B7
:1059A0003FF0007FF8000018000008000008002009
:1059B00010003FF8007FF000001000000000000021
:1059C000002000003000003C00003F800023F00079
:1059D0000078000070002380003C000030000020B0
:1059E00000002000003C00003FE00023F80000E041
:1059F000002700003E00003FE00021F80001E00029
:105A00003E000020000000000020080020080038B0
:105A100038003E680027800003C8002CF8003838A2
:105A200000201800200800000000000000200000F6
:105A30003003003C01003F830023EC000070002392
:105A400080003C000020000020000000000000005A
:105A50000000000038080020380020F80023E8008B
:105A60002F88003E08003808002018000070000051
:105A70000000000000000000000000000000000026
:105A80000008000014001FF7FC3000062000020090
:105A90000000000000000000000000000000000006
:105AA00000000000000000FFFFFF000000000000F9
:105AB00000000000000000000000000000000020C6
:105AC00000023000061FF7FC001400000800000070
:105AD00000000000000000000000000000000000C6
